:100000000C9434000C9446000C9446000C9446006A
:100010000C9446000C9446000C9446000C94460048
:100020000C9446000C9446000C9446000C94460038
:100030000C9446000C9446000C9446000C94460028
:100040000C94A3000C9446000C9446000C944600BB
:100050000C9446000C9446000C9446000C94460008
:100060000C9446000C94460011241FBECFEFD8E03C
:10007000DEBFCDBF11E0A0E0B1E001C01D92A23013
:10008000B107E1F70E9448000C94C0000C940000F6
:10009000DF93CF93CDB7DEB7A5E2B0E0E5E2F0E0C5
:1000A00080818E608C93ABE2B0E0EBE2F0E0808187
:1000B000806E8C93A8E2B0E0E8E2F0E080818F6788
:1000C0008C93A5E4B0E0E5E4F0E0808184608C935B
:1000D000AEE6B0E0EEE6F0E0808181608C93E6E48D
:1000E000F0E010821092010110920001789480914A
:1000F0000001909101018C309105C8F3E6E4F0E035
:1001000080818433A0F3A5E2B0E0E5E2F0E09081E5
:100110008EE089278C93ABE2B0E0EBE2F0E09081D7
:1001200080EE89278C93A8E2B0E0E8E2F0E09081CD
:100130008FE789278C93E6E4F0E0108210920101AA
:1001400010920001D4CF1F920F920FB60F9211247C
:100150008F939F93DF93CF93CDB7DEB7809100014C
:100160009091010101969093010180930001CF913C
:10017000DF919F918F910F900FBE0F901F90189558
:04018000F894FFCF21
:00000001FF
