:100000000C9434000C9466070C9451000C9451002D
:100010000C9451000C9451000C9451000C9451001C
:100020000C9451000C9451000C9451000C9451000C
:100030000C9451000C9451000C9451000C945100FC
:100040000C9451000C9451000C9451000C945100EC
:100050000C9451000C9451000C9451000C945100DC
:100060000C9451000C94510011241FBECFEFD8E026
:10007000DEBFCDBF11E0A0E0B1E0EEE1FCE102C0E7
:1000800005900D92AC31B107D9F711E0ACE1B1E0C8
:1000900001C01D92A032B107E1F70E9453000C94F9
:1000A0000D0E0C9400000F931F93DF93CF93CDB7E9
:1000B000DEB7CD59D0400FB6F894DEBF0FBECDBF2E
:1000C000CE018B579F4FC756DF4F99838883C959FD
:1000D000D04080E091E0C556DF4F99838883CB59AB
:1000E000D04094E1C356DF4F9883CD59D040C556D8
:1000F000DF4FE881F981CB59D0400080C556DF4FF2
:1001000088819981CB59D0400196C556DF4F99839C
:100110008883CB59D040C756DF4FE881F981C95950
:10012000D0400082C756DF4F88819981C959D0409D
:100130000196C756DF4F99838883C959D040C3566B
:10014000DF4F9881CD59D0409150C356DF4F9883EF
:10015000CD59D040C356DF4FE881CD59D040EE2372
:1001600031F6FE01EF57FF4F11821082A4E2B0E09A
:10017000E4E2F0E080818E608C93AAE2B0E0EAE2F3
:10018000F0E08081866E8C93A7E2B0E0E7E2F0E0D9
:1001900080818F678C93FE01E358FF4F80E090E0F1
:1001A000A8E4B2E480839183A283B3838E010758CD
:1001B0001F4FFE01E358FF4F60817181828193815F
:1001C00020E030E04AE755E40E947F09DC01CB01E2
:1001D000F80180839183A283B383FE01E758FF4F28
:1001E000608171818281938120E030E040E85FE3AB
:1001F0000E94850B882344F4FE01E958FF4F81E0FB
:1002000090E09183808364C0FE01E758FF4F6081D6
:1002100071818281938120E03FEF4FE757E40E9494
:10022000250B18160CF043C0FE01E358FF4F608108
:1002300071818281938120E030E040E251E40E94AC
:100240007F09DC01CB018E0109581F4FBC01CD0194
:100250000E94A907DC01CB01F801918380831FC0B4
:10026000FE01EB58FF4F80E991E091838083FE010E
:10027000EB58FF4F808191810197F1F7FE01EB5818
:10028000FF4F91838083DE01A958BF4FFE01E958DB
:10029000FF4F80819181019711969C938E93FE016F
:1002A000E958FF4F808191810097D1F627C08E01D8
:1002B00009581F4FFE01E758FF4F6081718182810D
:1002C00093810E94A907DC01CB01F801918380830F
:1002D000DE01AD58BF4FFE01E958FF4F808191818B
:1002E0008D939C93FE01ED58FF4F80819181019782
:1002F000F1F7FE01ED58FF4F91838083A9E6B0E04E
:10030000E9E6F0E0808181608C93ADE3B0E0EDE35D
:10031000F0E0808181608C937894FE01ED57FF4F6F
:1003200011821082D1C0A8E2B0E0FE01ED57FF4F6C
:10033000808191819E012B573F4F880F991FF901B2
:10034000E80FF91F808191818C93FE01E159FF4FE5
:1003500080E090E0AAE7B4E480839183A283B38332
:100360008E0105591F4FFE01E159FF4F60817181D8
:100370008281938120E030E04AE755E40E947F09C2
:10038000DC01CB01F80180839183A283B383FE015A
:10039000E559FF4F608171818281938120E030E0D7
:1003A00040E85FE30E94850B882344F4FE01E7598F
:1003B000FF4F81E090E09183808364C0FE01E559A6
:1003C000FF4F608171818281938120E03FEF4FE791
:1003D00057E40E94250B18160CF043C0FE01E159AA
:1003E000FF4F608171818281938120E030E040E2A3
:1003F00051E40E947F09DC01CB018E0107591F4F98
:10040000BC01CD010E94A907DC01CB01F801918359
:1004100080831FC0FE01E959FF4F80E991E091837D
:100420008083FE01E959FF4F808191810197F1F7A7
:10043000FE01E959FF4F91838083DE01A759BF4F29
:10044000FE01E759FF4F80819181019711969C939E
:100450008E93FE01E759FF4F808191810097D1F67D
:1004600027C08E0107591F4FFE01E559FF4F6081DC
:100470007181828193810E94A907DC01CB01F8017F
:1004800091838083DE01AB59BF4FFE01E759FF4FD7
:10049000808191818D939C93FE01EB59FF4F808168
:1004A00091810197F1F7FE01EB59FF4F9183808312
:1004B000DE01AD57BF4FFE01ED57FF4F80819181A7
:1004C000019611969C938E93FE01ED57FF4F80810C
:1004D00091818A30910508F426CFA5E2B0E0E5E2EB
:1004E000F0E0808182608C93A5E2B0E0E5E2F0E08C
:1004F00080818B7F8C93A5E2B0E0E5E2F0E0808123
:10050000877F8C93ABE2B0E0EBE2F0E08081806229
:100510008C93ABE2B0E0EBE2F0E080818F7B8C93D8
:10052000ABE2B0E0EBE2F0E080818F778C93ABE25E
:10053000B0E0EBE2F0E0808182608C93FE01EF5945
:10054000FF4F80E090E0A0E7B1E480839183A28335
:10055000B3838E01035A1F4FFE01EF59FF4F608195
:100560007181828193812BEA3AEA4AEA50E40E943F
:100570007F09DC01CB01F80180839183A283B383DF
:10058000FE01E35AFF4F608171818281938120E0F7
:1005900030E040E85FE30E94850B882334F4FE01DD
:1005A000E45AFF4F81E08083E0C0FE01E35AFF4F31
:1005B000608171818281938120E030E04FE753E4D4
:1005C0000E94250B18160CF0C0C0FE01EF59FF4F1A
:1005D000608171818281938120E030E04AE754E4B8
:1005E0000E94790ADC01CB01FE01E85AFF4F8083AB
:1005F0009183A283B3838E010C5A1F4FFE01E85AE8
:10060000FF4F608171818281938120E030E04AE771
:1006100055E40E947F09DC01CB01F80180839183BE
:10062000A283B383FE01EC5AFF4F60817181828106
:10063000938120E030E040E85FE30E94850B88234F
:1006400044F4FE01EE5AFF4F81E090E091838083F5
:1006500064C0FE01EC5AFF4F6081718182819381F9
:1006600020E03FEF4FE757E40E94250B18160CF0EF
:1006700043C0FE01E85AFF4F6081718182819381FE
:1006800020E030E040E251E40E947F09DC01CB0130
:100690008E010E5A1F4FBC01CD010E94A907DC013B
:1006A000CB01F801918380831FC0FE01E05BFF4F07
:1006B00080E991E091838083FE01E05BFF4F8081C0
:1006C00091810197F1F7FE01E05BFF4F91838083F9
:1006D000DE01AE5ABF4FFE01EE5AFF4F808191817D
:1006E000019711969C938E93FE01EE5AFF4F8081E5
:1006F00091810097D1F64BC08E010E5A1F4FFE011B
:10070000EC5AFF4F60817181828193810E94A90719
:10071000DC01CB01F80191838083DE01A25BBF4F36
:10072000FE01EE5AFF4F8081918111969C938E932A
:10073000FE01E25BFF4F808191810197F1F7FE019D
:10074000E25BFF4F9183808322C08E01045A1F4FCA
:10075000FE01E35AFF4F60817181828193810E9483
:10076000A907DC01CB01F8018083DE01A35BBF4F49
:10077000FE01E45AFF4F80818C93FE01E35BFF4F43
:1007800080818A95F1F7FE01E35BFF4F8083ABE246
:10079000B0E0EBE2F0E080818D7F8C9380911C01D2
:1007A00090911D01FE01EF57FF4F2AE330E0B901A0
:1007B0000E94AF0DCB0191838083FE01ED57FF4F67
:1007C00086E090E091838083CEC0A8E2B0E0FE0195
:1007D000ED57FF4F808191819E012B573F4F880F2E
:1007E000991FF901E80FF91F808191818C93FE0117
:1007F000E75BFF4F80E090E0AAE7B4E48083918359
:10080000A283B3838E010B5B1F4FFE01E75BFF4F9B
:10081000608171818281938120E030E04AE755E474
:100820000E947F09DC01CB01F80180839183A283C0
:10083000B383FE01EB5BFF4F608171818281938105
:1008400020E030E040E85FE30E94850B882344F419
:10085000FE01ED5BFF4F81E090E09183808364C0F7
:10086000FE01EB5BFF4F608171818281938120E00B
:100870003FEF4FE757E40E94250B18160CF043C0DA
:10088000FE01E75BFF4F608171818281938120E0EF
:1008900030E040E251E40E947F09DC01CB018E018F
:1008A0000D5B1F4FBC01CD010E94A907DC01CB01EC
:1008B000F801918380831FC0FE01EF5BFF4F80E949
:1008C00091E091838083FE01EF5BFF4F80819181F6
:1008D0000197F1F7FE01EF5BFF4F91838083DE010B
:1008E000AD5BBF4FFE01ED5BFF4F808191810197B2
:1008F00011969C938E93FE01ED5BFF4F8081918159
:100900000097D1F624C08E010D5B1F4FFE01EB5BFB
:10091000FF4F60817181828193810E94A907DC0170
:10092000CB01F80191838083FE01ED5BFF4F808155
:100930009181FE01FF9691838083FE01FF96808165
:1009400091810197F1F7FE01FF9691838083DE018B
:10095000AD57BF4FFE01ED57FF4F8081918101964A
:1009600011969C938E93FE01ED57FF4F80819181EC
:100970008A30910508F429CFA5E2B0E0E5E2F0E085
:1009800080818D7F8C93A5E2B0E0E5E2F0E080818C
:1009900084608C93A5E2B0E0E5E2F0E08081877F9F
:1009A0008C93ABE2B0E0EBE2F0E080818F7D8C9342
:1009B000ABE2B0E0EBE2F0E0808180648C93ABE2EC
:1009C000B0E0EBE2F0E080818F778C93ABE2B0E0B7
:1009D000EBE2F0E0808182608C9380E090E0A0E721
:1009E000B1E48BAF9CAFADAFBEAF6BAD7CAD8DADA9
:1009F0009EAD2BEA3AEA4AEA50E40E947F09DC0104
:100A0000CB018FAB98AFA9AFBAAF6FA978AD89AD65
:100A10009AAD20E030E040E85FE30E94850B882338
:100A20001CF481E08EAB91C06FA978AD89AD9AAD11
:100A300020E030E04FE753E40E94250B18160CF03D
:100A40007BC06BAD7CAD8DAD9EAD20E030E04AE764
:100A500054E40E94790ADC01CB018AAB9BABACABBE
:100A6000BDAB6AA97BA98CA99DA920E030E04AE72B
:100A700055E40E947F09DC01CB018EA79FA7A8AB9C
:100A8000B9AB6EA57FA588A999A920E030E040E820
:100A90005FE30E94850B88232CF481E090E09DA702
:100AA0008CA73FC06EA57FA588A999A920E03FEF3C
:100AB0004FE757E40E94250B18164CF56AA97BA94D
:100AC0008CA99DA920E030E040E251E40E947F091A
:100AD000DC01CB01BC01CD010E94A907DC01CB01E7
:100AE0009DA78CA70FC080E991E09BA78AA78AA544
:100AF0009BA50197F1F79BA78AA78CA59DA50197B8
:100B00009DA78CA78CA59DA5009769F724C06EA50D
:100B10007FA588A999A90E94A907DC01CB019DA7FF
:100B20008CA78CA59DA599A788A788A599A50197AD
:100B3000F1F799A788A70FC06FA978AD89AD9AADD5
:100B40000E94A907DC01CB018EAB8EA98FA38FA1D8
:100B50008A95F1F78FA3ABE2B0E0EBE2F0E08081A1
:100B60008D7F8C9380911C0190911D01FE01EF57A8
:100B7000FF4F2AE330E0B9010E94AF0DCB01918312
:100B80008083FE01ED57FF4F1182108290C0A8E2D2
:100B9000B0E0FE01ED57FF4F808191819E012B5700
:100BA0003F4F880F991FF901E80FF91F808191814C
:100BB0008C9380E090E0AAE7B4E48BA39CA3ADA360
:100BC000BEA36BA17CA18DA19EA120E030E04AE7ED
:100BD00055E40E947F09DC01CB018F8F98A3A9A364
:100BE000BAA36F8D78A189A19AA120E030E040E8F6
:100BF0005FE30E94850B88232CF481E090E09E8FB8
:100C00008D8F3FC06F8D78A189A19AA120E03FEF21
:100C10004FE757E40E94250B18164CF56BA17CA1F9
:100C20008DA19EA120E030E040E251E40E947F09C6
:100C3000DC01CB01BC01CD010E94A907DC01CB0185
:100C40009E8F8D8F0FC080E991E09C8F8B8F8B8D55
:100C50009C8D0197F1F79C8F8B8F8D8D9E8D0197C9
:100C60009E8F8D8F8D8D9E8D009769F714C06F8D2F
:100C700078A189A19AA10E94A907DC01CB019E8FCE
:100C80008D8F8D8D9E8D9A8F898F898D9A8D0197ED
:100C9000F1F79A8F898FDE01AD57BF4FFE01ED57F7
:100CA000FF4F80819181019611969C938E93FE0156
:100CB000ED57FF4F808191818A30910508F467CF0D
:100CC000A5E2B0E0E5E2F0E080818D7F8C93A5E2C3
:100CD000B0E0E5E2F0E080818B7F8C93A5E2B0E0AC
:100CE000E5E2F0E0808188608C93ABE2B0E0EBE27B
:100CF000F0E080818F7D8C93ABE2B0E0EBE2F0E03E
:100D000080818F7B8C93ABE2B0E0EBE2F0E08081FE
:100D100080688C93ABE2B0E0EBE2F0E0808182602F
:100D20008C9380E090E0A0E7B1E48D8B9E8BAF8B3D
:100D3000B88F6D897E898F89988D2BEA3AEA4AEAC5
:100D400050E40E947F09DC01CB01898B9A8BAB8B2D
:100D5000BC8B69897A898B899C8920E030E040E8E6
:100D60005FE30E94850B88231CF481E0888B91C08F
:100D700069897A898B899C8920E030E04FE753E4C8
:100D80000E94250B18160CF07BC06D897E898F8917
:100D9000988D20E030E04AE754E40E94790ADC01B3
:100DA000CB018C879D87AE87BF876C857D858E85BF
:100DB0009F8520E030E04AE755E40E947F09DC018E
:100DC000CB0188879987AA87BB87688579858A85BB
:100DD0009B8520E030E040E85FE30E94850B88239C
:100DE0002CF481E090E09F838E833FC068857985F5
:100DF0008A859B8520E03FEF4FE757E40E94250B53
:100E000018164CF56C857D858E859F8520E030E039
:100E100040E251E40E947F09DC01CB01BC01CD011D
:100E20000E94A907DC01CB019F838E830FC080E95C
:100E300091E09D838C838C819D810197F1F79D8347
:100E40008C838E819F8101979F838E838E819F816A
:100E5000009769F724C0688579858A859B850E94FB
:100E6000A907DC01CB019F838E838E819F819B83A9
:100E70008A838A819B810197F1F79B838A830FC0C4
:100E800069897A898B899C890E94A907DC01CB0139
:100E9000888B8889898389818A95F1F78983ABE278
:100EA000B0E0EBE2F0E080818D7F8C9380911C01BB
:100EB00090911D01FE01EF57FF4F2AE330E0B90189
:100EC0000E94AF0DCB019183808327CA1F920F929E
:100ED0000FB60F9211248F939F93AF93BF93EF930D
:100EE000FF93DF93CF93CDB7DEB780911E01909132
:100EF0001F01009771F4A1E8B0E0E1E8F0E0808123
:100F000081608C9381E090E090931F0180931E019B
:100F100013C0E1E8F0E01082E4E8F0E08081882F7F
:100F200090E090931D0180931C01E4E8F0E01082B2
:100F300010921F0110921E01CF91DF91FF91EF914E
:100F4000BF91AF919F918F910F900FBE0F901F9007
:100F50001895EF92FF920F931F937B018C0120E075
:100F600030E040E05FE40E94550B88238CF0C8011C
:100F7000B70120E030E040E05FE40E9421090E94D8
:100F8000B50B9B01AC01205030404040504806C09A
:100F9000C801B7010E94B50B9B01AC01B901CA01A0
:100FA0001F910F91FF90EF900895A0E0B0E0EBED5E
:100FB000F7E00C94D60DDC012B01FA019C919230E4
:100FC00008F439C1EB018881823008F433C19430D0
:100FD00069F4843009F02FC111969C911197898191
:100FE000981709F428C1A4E1B1E025C1843009F4BF
:100FF00021C18230A9F4923009F01DC19A01AD01DE
:1010000088E0EA010990AE01E90109929E01815050
:10101000C1F7E201898111969C918923818308C1DE
:10102000923009F407C112962D903C901397EB0172
:101030008A819B811496AD90BD90CD90DC901797DE
:10104000EC80FD800E811F819101281B390BB901B5
:1010500037FF04C066277727621B730B6032710568
:101060000CF061C0121613066CF537014801062E0C
:1010700004C096948794779467940A94D2F721E0F9
:1010800030E040E050E004C0220F331F441F551FE2
:101090006A95D2F721503040404050402E213F21E8
:1010A00040235123211531054105510521F021E04F
:1010B00030E040E050E079018A01E628F72808296D
:1010C00019293CC0232BD1F1260E371E35014601CC
:1010D000062E04C096948794779467940A94D2F766
:1010E00021E030E040E050E004C0220F331F441FF5
:1010F000551F6A95D2F721503040404050402A2178
:101100003B214C215D21211531054105510521F07F
:1011100021E030E040E050E059016A01A628B728FC
:10112000C828D9280BC0821593052CF01C01AA24CD
:10113000BB24650103C0EE24FF24870111969C9116
:10114000D20111968C91981709F445C0992339F072
:10115000A80197012A193B094C095D0906C0A6019F
:1011600095012E193F09400B510B57FD08C0118204
:101170003382228224833583468357831DC081E0D6
:1011800081833382228288279927DC01821B930B7B
:10119000A40BB50B84839583A683B7830DC0220F60
:1011A000331F441F551F2483358346835783828111
:1011B000938101979383828324813581468157816E
:1011C000DA01C9010197A109B1098F5F9F4FAF4FA4
:1011D000BF4328F30BC0918333822282EA0CFB1CAD
:1011E0000C1D1D1DE482F5820683178383E0808336
:1011F000248135814681578157FF1AC0C901AA272A
:1012000097FDA095BA2F81709070A070B070569520
:10121000479537952795822B932BA42BB52B848349
:101220009583A683B783828193810196938382837A
:10123000DF0101C0D201CD01CDB7DEB7E2E10C94F0
:10124000F20DA0E2B0E0E7E2F9E00C94E20D698370
:101250007A838B839C832D833E834F835887E9E079
:10126000EE2EF12CEC0EFD1ECE010196B7010E9470
:10127000DE0C8E010F5E1F4FCE010596B8010E9455
:10128000DE0C8A8991E089278A8BC701B801AE01FB
:10129000475E5F4F0E94D5070E94090CA096E6E0CA
:1012A0000C94FE0DA0E2B0E0E8E5F9E00C94E20D4C
:1012B00069837A838B839C832D833E834F835887F6
:1012C000F9E0EF2EF12CEC0EFD1ECE010196B701D8
:1012D0000E94DE0C8E010F5E1F4FCE010596B801F5
:1012E0000E94DE0CC701B801AE01475E5F4F0E944D
:1012F000D5070E94090CA096E6E00C94FE0DA0E232
:10130000B0E0E5E8F9E00C94D60D69837A838B832D
:101310009C832D833E834F835887CE010196BE0167
:10132000675F7F4F0E94DE0CCE010596BE016F5EA7
:101330007F4F0E94DE0C9985923088F08989823037
:10134000C8F0943019F4823051F404C0843029F488
:10135000923081F484E191E0C6C0923049F420E0FB
:101360009A858A89981321E02A87CE010996BBC005
:10137000823049F420E09A858A89981321E02A8BEB
:10138000CE014196B0C02D843E844F8458886D882C
:101390007E888F88988CEE24FF248701AA24BB24A2
:1013A000650140E050E060E070E0E0E0F0E0C101A5
:1013B00081709070892BE9F0E60CF71C081D191D4F
:1013C0009A01AB012A0D3B1D4C1D5D1D80E090E094
:1013D000A0E0B0E0E614F7040805190520F481E068
:1013E00090E0A0E0B0E0BA01A901480F591F6A1FC0
:1013F0007B1FAA0CBB1CCC1CDD1C97FE08C081E027
:1014000090E0A0E0B0E0A82AB92ACA2ADB2A3196E7
:10141000E032F10549F0660C771C881C991C569443
:10142000479437942794C3CFFA85EA892B893C895E
:101430008B859C85280F391F2E5F3F4F17C0CA012F
:1014400081709070892B61F016950795F794E79459
:1014500080E090E0A0E0B0E8E82AF92A0A2B1B2BF4
:1014600076956795579547952F5F3F4F77FDE7CF67
:101470000CC0440F551F661F771F17FD4160EE0C0F
:10148000FF1C001F111F21503040403090E05907D1
:1014900090E0690790E4790760F32B8F3C8FDB01C4
:1014A000CA018F779070A070B07080349105A1054B
:1014B000B10561F447FD0AC0E114F104010511050D
:1014C00029F0405C5F4F6F4F7F4F40781A8EFE17B8
:1014D00011F081E08A8F4D8F5E8F6F8F78A383E04C
:1014E000898FCE0149960E94090CA096E2E10C94E6
:1014F000F20DA8E1B0E0EFE7FAE00C94DE0D6983AD
:101500007A838B839C832D833E834F835887B9E0F6
:10151000EB2EF12CEC0EFD1ECE010196B7010E94C0
:10152000DE0C8E010F5E1F4FCE010596B8010E94A2
:10153000DE0C2985223008F47EC03989323010F45F
:10154000B8017CC08A859A8989278A87243011F05E
:10155000223031F4231709F06EC064E171E06EC0EF
:10156000343039F41D861E861F86188A1C861B8619
:1015700004C0323021F484E08987B7015FC02B8535
:101580003C858B899C89281B390B3C872B87ED84F4
:10159000FE840F851889AD88BE88CF88D88CEA1460
:1015A000FB040C051D0540F4EE0CFF1C001F111F71
:1015B000215030403C872B8720E030E040E050E075
:1015C00080E090E0A0E0B0E460E070E0EA14FB04AA
:1015D0000C051D0540F0282B392B4A2B5B2BEA18F4
:1015E000FB080C091D09B695A79597958795EE0CF4
:1015F000FF1C001F111F6F5F7F4F6F31710531F7A7
:10160000DA01C9018F779070A070B07080349105B5
:10161000A105B10561F427FD0AC0E114F10401053B
:10162000110529F0205C3F4F4F4F5F4F20782D87E9
:101630003E874F87588BBE01675F7F4FCB010E946B
:10164000090C6896EAE00C94FA0DA8E1B0E0EBE230
:10165000FBE00C94E20D69837A838B839C832D835A
:101660003E834F83588789E0E82EF12CEC0EFD1E57
:10167000CE010196B7010E94DE0C8E010F5E1F4F56
:10168000CE010596B8010E94DE0C8985823040F0BB
:101690008989823028F0C701B8010E94560D01C027
:1016A0008FEF6896E6E00C94FE0DA8E1B0E0EBE564
:1016B000FBE00C94E20D69837A838B839C832D83FA
:1016C0003E834F83588789E0E82EF12CEC0EFD1EF7
:1016D000CE010196B7010E94DE0C8E010F5E1F4FF6
:1016E000CE010596B8010E94DE0C8985823040F05B
:1016F0008989823028F0C701B8010E94560D01C0C7
:101700008FEF6896E6E00C94FE0DA8E1B0E0EBE800
:10171000FBE00C94E20D69837A838B839C832D8399
:101720003E834F83588789E0E82EF12CEC0EFD1E96
:10173000CE010196B7010E94DE0C8E010F5E1F4F95
:10174000CE010596B8010E94DE0C8985823040F0FA
:101750008989823028F0C701B8010E94560D01C066
:1017600081E06896E6E00C94FE0DACE0B0E0EBEBB7
:10177000FBE00C94E60D69837A838B839C83CE0116
:101780000196BE016B5F7F4F0E94DE0C8D8182301F
:1017900061F1823050F1843021F48E81882351F13F
:1017A0002EC02F81388537FD20C06E812F31310545
:1017B0001CF06623F9F023C08EE190E0821B930BAE
:1017C00029853A854B855C8504C0569547953795A4
:1017D00027958A95D2F76623B1F0509540953095BC
:1017E00021953F4F4F4F5F4F0EC020E030E040E06B
:1017F00050E009C02FEF3FEF4FEF5FE704C020E05C
:1018000030E040E050E8B901CA012C96E2E00C94C7
:10181000020EDF92EF92FF920F931F93FC01E48080
:10182000F58006811781D1808081823048F480E084
:1018300090E0A0E1B0E0E82AF92A0A2B1B2BA5C012
:10184000843009F49FC0823021F4EE24FF24870104
:1018500005C0E114F1040105110519F4E0E0F0E020
:1018600096C0628173819FEF623879070CF05BC08C
:1018700022E83FEF261B370B2A3131052CF020E000
:1018800030E040E050E02AC0B801A701022E04C0B9
:1018900076956795579547950A94D2F781E090E041
:1018A000A0E0B0E004C0880F991FAA1FBB1F2A95B3
:1018B000D2F70197A109B1098E219F21A023B1235D
:1018C0000097A105B10521F081E090E0A0E0B0E033
:1018D0009A01AB01282B392B4A2B5B2BDA01C9016A
:1018E0008F779070A070B07080349105A105B1051C
:1018F00039F427FF09C0205C3F4F4F4F5F4F04C0B2
:10190000215C3F4F4F4F5F4FE0E0F0E02030A0E020
:101910003A07A0E04A07A0E45A0710F0E1E0F0E03F
:1019200079018A0127C06038710564F5FB01E1582F
:10193000FF4FD801C7018F779070A070B0708034CE
:101940009105A105B10539F4E7FE0DC080E490E0F2
:10195000A0E0B0E004C08FE390E0A0E0B0E0E80ECB
:10196000F91E0A1F1B1F17FF05C016950795F79450
:10197000E794319687E016950795F794E7948A9552
:10198000D1F705C0EE24FF248701EFEFF0E06E2FC2
:10199000679566276795902F9F77D794DD24D79416
:1019A0008E2F8695492F462B582F5D29B701CA01E6
:1019B0001F910F91FF90EF90DF900895FC01DB01E4
:1019C000408151812281622F6F7770E0221F222790
:1019D000221F9381892F880F822B282F30E0991F97
:1019E0009927991F11969C93119721153105A9F5F7
:1019F000411551056105710511F482E037C082E897
:101A00009FEF13969C938E9312979A01AB0167E018
:101A1000220F331F441F551F6A95D1F783E08C9323
:101A20000DC0220F331F441F551F12968D919C919C
:101A30001397019713969C938E931297203080E012
:101A4000380780E0480780E4580758F314962D9330
:101A50003D934D935C93179708952F3F310579F48B
:101A6000411551056105710519F484E08C930895C1
:101A700064FF03C081E08C9312C01C9210C02F57EA
:101A8000304013963C932E93129783E08C9387E01B
:101A9000440F551F661F771F8A95D1F770641496FF
:101AA0004D935D936D937C93179708951F93DC017D
:101AB000FB019C91923008F447C08081823008F489
:101AC00043C0943051F411961C91843099F5818172
:101AD000682F70E0611B71093FC0843021F09230A3
:101AE00031F48230B9F18181882389F12DC01196BA
:101AF0001C9111978230F1F081811817D9F4129658
:101B00002D913C911397828193818217930794F0D2
:101B100028173907BCF014968D919D910D90BC91BA
:101B2000A02D2481358146815781281739074A071E
:101B30005B0718F4112341F00AC082179307A4072A
:101B4000B50740F4112319F061E070E005C06FEFB4
:101B50007FEF02C060E070E0CB011F91089597FB1A
:101B6000092E07260AD077FD04D00CD006D000201D
:101B70001AF4709561957F4F0895F6F790958195C9
:101B80009F4F0895AA1BBB1B51E107C0AA1FBB1F93
:101B9000A617B70710F0A61BB70B881F991F5A95F9
:101BA000A9F780959095BC01CD0108952F923F92A1
:101BB0004F925F926F927F928F929F92AF92BF925D
:101BC000CF92DF92EF92FF920F931F93CF93DF9309
:101BD000CDB7DEB7CA1BDB0B0FB6F894DEBF0FBE66
:101BE000CDBF09942A88398848885F846E847D84B3
:101BF0008C849B84AA84B984C884DF80EE80FD80B5
:101C00000C811B81AA81B981CE0FD11D0FB6F8942A
:0E1C1000DEBF0FBECDBFED010895F894FFCFEB
:101C1E0090008000F800820092009900B000A400AD
:0C1C2E00F900C0000000000000000000F1
:00000001FF
